{
  "_format": "hh-sol-artifact-1",
  "contractName": "MatrixDeliveryEscrow",
  "sourceName": "contracts/MatrixDeliveryEscrow.sol",
  "abi": [
    {
      "inputs": [
        {
          "internalType": "address",
          "name": "_platformWallet",
          "type": "address"
        },
        {
          "internalType": "uint256",
          "name": "_commissionRate",
          "type": "uint256"
        }
      ],
      "stateMutability": "nonpayable",
      "type": "constructor"
    },
    {
      "inputs": [
        {
          "internalType": "address",
          "name": "owner",
          "type": "address"
        }
      ],
      "name": "OwnableInvalidOwner",
      "type": "error"
    },
    {
      "inputs": [
        {
          "internalType": "address",
          "name": "account",
          "type": "address"
        }
      ],
      "name": "OwnableUnauthorizedAccount",
      "type": "error"
    },
    {
      "inputs": [],
      "name": "ReentrancyGuardReentrantCall",
      "type": "error"
    },
    {
      "anonymous": false,
      "inputs": [
        {
          "indexed": false,
          "internalType": "uint256",
          "name": "oldRate",
          "type": "uint256"
        },
        {
          "indexed": false,
          "internalType": "uint256",
          "name": "newRate",
          "type": "uint256"
        }
      ],
      "name": "CommissionRateUpdated",
      "type": "event"
    },
    {
      "anonymous": false,
      "inputs": [
        {
          "indexed": true,
          "internalType": "string",
          "name": "orderId",
          "type": "string"
        }
      ],
      "name": "DeliveryStarted",
      "type": "event"
    },
    {
      "anonymous": false,
      "inputs": [
        {
          "indexed": true,
          "internalType": "string",
          "name": "orderId",
          "type": "string"
        },
        {
          "indexed": true,
          "internalType": "address",
          "name": "driver",
          "type": "address"
        }
      ],
      "name": "OrderAccepted",
      "type": "event"
    },
    {
      "anonymous": false,
      "inputs": [
        {
          "indexed": true,
          "internalType": "string",
          "name": "orderId",
          "type": "string"
        }
      ],
      "name": "OrderCancelled",
      "type": "event"
    },
    {
      "anonymous": false,
      "inputs": [
        {
          "indexed": true,
          "internalType": "string",
          "name": "orderId",
          "type": "string"
        },
        {
          "indexed": false,
          "internalType": "uint256",
          "name": "driverAmount",
          "type": "uint256"
        },
        {
          "indexed": false,
          "internalType": "uint256",
          "name": "platformFee",
          "type": "uint256"
        }
      ],
      "name": "OrderCompleted",
      "type": "event"
    },
    {
      "anonymous": false,
      "inputs": [
        {
          "indexed": true,
          "internalType": "string",
          "name": "orderId",
          "type": "string"
        },
        {
          "indexed": true,
          "internalType": "address",
          "name": "customer",
          "type": "address"
        },
        {
          "indexed": false,
          "internalType": "uint256",
          "name": "amount",
          "type": "uint256"
        },
        {
          "indexed": false,
          "internalType": "address",
          "name": "token",
          "type": "address"
        }
      ],
      "name": "OrderCreated",
      "type": "event"
    },
    {
      "anonymous": false,
      "inputs": [
        {
          "indexed": true,
          "internalType": "string",
          "name": "orderId",
          "type": "string"
        },
        {
          "indexed": true,
          "internalType": "address",
          "name": "initiator",
          "type": "address"
        }
      ],
      "name": "OrderDisputed",
      "type": "event"
    },
    {
      "anonymous": false,
      "inputs": [
        {
          "indexed": true,
          "internalType": "string",
          "name": "orderId",
          "type": "string"
        },
        {
          "indexed": true,
          "internalType": "address",
          "name": "customer",
          "type": "address"
        },
        {
          "indexed": false,
          "internalType": "uint256",
          "name": "amount",
          "type": "uint256"
        }
      ],
      "name": "OrderFunded",
      "type": "event"
    },
    {
      "anonymous": false,
      "inputs": [
        {
          "indexed": true,
          "internalType": "string",
          "name": "orderId",
          "type": "string"
        },
        {
          "indexed": false,
          "internalType": "uint256",
          "name": "amount",
          "type": "uint256"
        }
      ],
      "name": "OrderRefunded",
      "type": "event"
    },
    {
      "anonymous": false,
      "inputs": [
        {
          "indexed": true,
          "internalType": "address",
          "name": "previousOwner",
          "type": "address"
        },
        {
          "indexed": true,
          "internalType": "address",
          "name": "newOwner",
          "type": "address"
        }
      ],
      "name": "OwnershipTransferred",
      "type": "event"
    },
    {
      "anonymous": false,
      "inputs": [
        {
          "indexed": true,
          "internalType": "address",
          "name": "oldWallet",
          "type": "address"
        },
        {
          "indexed": true,
          "internalType": "address",
          "name": "newWallet",
          "type": "address"
        }
      ],
      "name": "PlatformWalletUpdated",
      "type": "event"
    },
    {
      "anonymous": false,
      "inputs": [
        {
          "indexed": true,
          "internalType": "address",
          "name": "token",
          "type": "address"
        }
      ],
      "name": "TokenAdded",
      "type": "event"
    },
    {
      "inputs": [
        {
          "internalType": "string",
          "name": "orderId",
          "type": "string"
        },
        {
          "internalType": "address",
          "name": "driver",
          "type": "address"
        }
      ],
      "name": "acceptOrder",
      "outputs": [],
      "stateMutability": "nonpayable",
      "type": "function"
    },
    {
      "inputs": [
        {
          "internalType": "address",
          "name": "token",
          "type": "address"
        }
      ],
      "name": "addSupportedToken",
      "outputs": [],
      "stateMutability": "nonpayable",
      "type": "function"
    },
    {
      "inputs": [
        {
          "internalType": "string",
          "name": "orderId",
          "type": "string"
        }
      ],
      "name": "cancelOrder",
      "outputs": [],
      "stateMutability": "nonpayable",
      "type": "function"
    },
    {
      "inputs": [
        {
          "internalType": "string",
          "name": "orderId",
          "type": "string"
        }
      ],
      "name": "completeOrder",
      "outputs": [],
      "stateMutability": "nonpayable",
      "type": "function"
    },
    {
      "inputs": [
        {
          "internalType": "string",
          "name": "orderId",
          "type": "string"
        },
        {
          "internalType": "address",
          "name": "token",
          "type": "address"
        },
        {
          "internalType": "uint256",
          "name": "amount",
          "type": "uint256"
        }
      ],
      "name": "createOrder",
      "outputs": [],
      "stateMutability": "nonpayable",
      "type": "function"
    },
    {
      "inputs": [
        {
          "internalType": "string",
          "name": "orderId",
          "type": "string"
        }
      ],
      "name": "disputeOrder",
      "outputs": [],
      "stateMutability": "nonpayable",
      "type": "function"
    },
    {
      "inputs": [
        {
          "internalType": "address",
          "name": "",
          "type": "address"
        }
      ],
      "name": "driverEarnings",
      "outputs": [
        {
          "internalType": "uint256",
          "name": "",
          "type": "uint256"
        }
      ],
      "stateMutability": "view",
      "type": "function"
    },
    {
      "inputs": [
        {
          "internalType": "address",
          "name": "token",
          "type": "address"
        },
        {
          "internalType": "uint256",
          "name": "amount",
          "type": "uint256"
        }
      ],
      "name": "emergencyWithdraw",
      "outputs": [],
      "stateMutability": "nonpayable",
      "type": "function"
    },
    {
      "inputs": [
        {
          "internalType": "address",
          "name": "driver",
          "type": "address"
        }
      ],
      "name": "getDriverEarnings",
      "outputs": [
        {
          "internalType": "uint256",
          "name": "",
          "type": "uint256"
        }
      ],
      "stateMutability": "view",
      "type": "function"
    },
    {
      "inputs": [
        {
          "internalType": "string",
          "name": "orderId",
          "type": "string"
        }
      ],
      "name": "getOrder",
      "outputs": [
        {
          "components": [
            {
              "internalType": "string",
              "name": "orderId",
              "type": "string"
            },
            {
              "internalType": "address",
              "name": "customer",
              "type": "address"
            },
            {
              "internalType": "address",
              "name": "driver",
              "type": "address"
            },
            {
              "internalType": "address",
              "name": "token",
              "type": "address"
            },
            {
              "internalType": "uint256",
              "name": "amount",
              "type": "uint256"
            },
            {
              "internalType": "uint256",
              "name": "platformFee",
              "type": "uint256"
            },
            {
              "internalType": "uint256",
              "name": "driverAmount",
              "type": "uint256"
            },
            {
              "internalType": "enum MatrixDeliveryEscrow.OrderStatus",
              "name": "status",
              "type": "uint8"
            },
            {
              "internalType": "uint256",
              "name": "createdAt",
              "type": "uint256"
            },
            {
              "internalType": "uint256",
              "name": "completedAt",
              "type": "uint256"
            }
          ],
          "internalType": "struct MatrixDeliveryEscrow.Order",
          "name": "",
          "type": "tuple"
        }
      ],
      "stateMutability": "view",
      "type": "function"
    },
    {
      "inputs": [],
      "name": "getStatistics",
      "outputs": [
        {
          "internalType": "uint256",
          "name": "totalOrders",
          "type": "uint256"
        },
        {
          "internalType": "uint256",
          "name": "totalVolume",
          "type": "uint256"
        },
        {
          "internalType": "uint256",
          "name": "currentCommission",
          "type": "uint256"
        }
      ],
      "stateMutability": "view",
      "type": "function"
    },
    {
      "inputs": [
        {
          "internalType": "string",
          "name": "",
          "type": "string"
        }
      ],
      "name": "orders",
      "outputs": [
        {
          "internalType": "string",
          "name": "orderId",
          "type": "string"
        },
        {
          "internalType": "address",
          "name": "customer",
          "type": "address"
        },
        {
          "internalType": "address",
          "name": "driver",
          "type": "address"
        },
        {
          "internalType": "address",
          "name": "token",
          "type": "address"
        },
        {
          "internalType": "uint256",
          "name": "amount",
          "type": "uint256"
        },
        {
          "internalType": "uint256",
          "name": "platformFee",
          "type": "uint256"
        },
        {
          "internalType": "uint256",
          "name": "driverAmount",
          "type": "uint256"
        },
        {
          "internalType": "enum MatrixDeliveryEscrow.OrderStatus",
          "name": "status",
          "type": "uint8"
        },
        {
          "internalType": "uint256",
          "name": "createdAt",
          "type": "uint256"
        },
        {
          "internalType": "uint256",
          "name": "completedAt",
          "type": "uint256"
        }
      ],
      "stateMutability": "view",
      "type": "function"
    },
    {
      "inputs": [],
      "name": "owner",
      "outputs": [
        {
          "internalType": "address",
          "name": "",
          "type": "address"
        }
      ],
      "stateMutability": "view",
      "type": "function"
    },
    {
      "inputs": [],
      "name": "platformCommissionRate",
      "outputs": [
        {
          "internalType": "uint256",
          "name": "",
          "type": "uint256"
        }
      ],
      "stateMutability": "view",
      "type": "function"
    },
    {
      "inputs": [],
      "name": "platformWallet",
      "outputs": [
        {
          "internalType": "address",
          "name": "",
          "type": "address"
        }
      ],
      "stateMutability": "view",
      "type": "function"
    },
    {
      "inputs": [
        {
          "internalType": "string",
          "name": "orderId",
          "type": "string"
        }
      ],
      "name": "refundOrder",
      "outputs": [],
      "stateMutability": "nonpayable",
      "type": "function"
    },
    {
      "inputs": [
        {
          "internalType": "address",
          "name": "token",
          "type": "address"
        }
      ],
      "name": "removeSupportedToken",
      "outputs": [],
      "stateMutability": "nonpayable",
      "type": "function"
    },
    {
      "inputs": [],
      "name": "renounceOwnership",
      "outputs": [],
      "stateMutability": "nonpayable",
      "type": "function"
    },
    {
      "inputs": [
        {
          "internalType": "string",
          "name": "orderId",
          "type": "string"
        }
      ],
      "name": "startDelivery",
      "outputs": [],
      "stateMutability": "nonpayable",
      "type": "function"
    },
    {
      "inputs": [
        {
          "internalType": "address",
          "name": "",
          "type": "address"
        }
      ],
      "name": "supportedTokens",
      "outputs": [
        {
          "internalType": "bool",
          "name": "",
          "type": "bool"
        }
      ],
      "stateMutability": "view",
      "type": "function"
    },
    {
      "inputs": [],
      "name": "totalOrdersCompleted",
      "outputs": [
        {
          "internalType": "uint256",
          "name": "",
          "type": "uint256"
        }
      ],
      "stateMutability": "view",
      "type": "function"
    },
    {
      "inputs": [],
      "name": "totalVolumeProcessed",
      "outputs": [
        {
          "internalType": "uint256",
          "name": "",
          "type": "uint256"
        }
      ],
      "stateMutability": "view",
      "type": "function"
    },
    {
      "inputs": [
        {
          "internalType": "address",
          "name": "newOwner",
          "type": "address"
        }
      ],
      "name": "transferOwnership",
      "outputs": [],
      "stateMutability": "nonpayable",
      "type": "function"
    },
    {
      "inputs": [
        {
          "internalType": "uint256",
          "name": "newRate",
          "type": "uint256"
        }
      ],
      "name": "updateCommissionRate",
      "outputs": [],
      "stateMutability": "nonpayable",
      "type": "function"
    },
    {
      "inputs": [
        {
          "internalType": "address",
          "name": "newWallet",
          "type": "address"
        }
      ],
      "name": "updatePlatformWallet",
      "outputs": [],
      "stateMutability": "nonpayable",
      "type": "function"
    }
  ],
  "bytecode": "0x60806040523480156200001157600080fd5b50604051620022d9380380620022d9833981016040819052620000349162000195565b600160005533806200006157604051631e4fbdf760e01b8152600060048201526024015b60405180910390fd5b6200006c8162000143565b506001600160a01b038216620000c55760405162461bcd60e51b815260206004820152601760248201527f496e76616c696420706c6174666f726d2077616c6c6574000000000000000000604482015260640162000058565b610bb8811115620001195760405162461bcd60e51b815260206004820152601860248201527f436f6d6d697373696f6e207261746520746f6f20686967680000000000000000604482015260640162000058565b600580546001600160a01b0319166001600160a01b039390931692909217909155600655620001d1565b600180546001600160a01b038381166001600160a01b0319831681179093556040519116919082907f8be0079c531659141344cd1fd0a4f28419497f9722a3daafe3b4186f6b6457e090600090a35050565b60008060408385031215620001a957600080fd5b82516001600160a01b0381168114620001c157600080fd5b6020939093015192949293505050565b6120f880620001e16000396000f3fe608060405234801561001057600080fd5b50600436106101725760003560e01c8063715018a6116100de578063a6df1f1111610097578063c2558ffd11610071578063c2558ffd14610372578063f2fde38b14610385578063fa2af9da14610398578063ffa1b66b146103ab57600080fd5b8063a6df1f1114610343578063ada4ef301461034c578063b96c08661461035f57600080fd5b8063715018a6146102ca57806376319190146102d25780638da5cb5b146102e557806395ccea671461030a578063987e7ad21461031d5780639b3a0f611461033057600080fd5b80632718c14f116101305780632718c14f1461020e5780632e3ffec814610217578063372d6b271461024057806368c4ac26146102645780636d69fcaf14610297578063712ca0f8146102aa57600080fd5b8062fa3d5014610177578063017240b81461018c5780630fc307111461019f5780631a948947146101b25780631da4dd0d146101e4578063234e75c9146101fb575b600080fd5b61018a610185366004611af2565b6103cb565b005b61018a61019a366004611bae565b61045f565b61018a6101ad366004611bae565b6105dc565b6101c56101c0366004611bae565b6107bc565b6040516101db9a99989796959493929190611c73565b60405180910390f35b6101ed60065481565b6040519081526020016101db565b61018a610209366004611d02565b6108b4565b6101ed60085481565b6101ed610225366004611d50565b6001600160a01b031660009081526004602052604090205490565b600754600854600654604080519384526020840192909252908201526060016101db565b610287610272366004611d50565b60036020526000908152604090205460ff1681565b60405190151581526020016101db565b61018a6102a5366004611d50565b610a65565b6102bd6102b8366004611bae565b610b70565b6040516101db9190611d72565b61018a610d19565b61018a6102e0366004611d50565b610d2d565b6001546001600160a01b03165b6040516001600160a01b0390911681526020016101db565b61018a610318366004611e27565b610db4565b61018a61032b366004611bae565b610e9e565b61018a61033e366004611e51565b610f77565b6101ed60075481565b61018a61035a366004611d50565b611408565b61018a61036d366004611bae565b6114aa565b61018a610380366004611bae565b6117f5565b61018a610393366004611d50565b611a0e565b6005546102f2906001600160a01b031681565b6101ed6103b9366004611d50565b60046020526000908152604090205481565b6103d3611a49565b610bb881111561041a5760405162461bcd60e51b815260206004820152600d60248201526c0a4c2e8ca40e8dede40d0d2ced609b1b60448201526064015b60405180910390fd5b600680549082905560408051828152602081018490527fd5b010b75d0703745f3c15954fbe4ac8aebb10e4c4aa09de04b1e1e195a67b9d910160405180910390a15050565b60006002826040516104719190611ea8565b9081526040519081900360200190206001810154909150336001600160a01b0390911614806104ac575060028101546001600160a01b031633145b806104c157506001546001600160a01b031633145b6104fe5760405162461bcd60e51b815260206004820152600e60248201526d139bdd08185d5d1a1bdc9a5e995960921b6044820152606401610411565b600360078083015460ff169081111561051957610519611c3b565b148061053d5750600260078083015460ff169081111561053b5761053b611c3b565b145b6105895760405162461bcd60e51b815260206004820152601e60248201527f43616e206f6e6c79206469737075746520616374697665206f726465727300006044820152606401610411565b60078101805460ff1916600517905560405133906105a8908490611ea8565b604051908190038120907fe61013e9fdab4deeaf1423f834fa08798d3a0b78c4d21e3268fcc42382c421d390600090a35050565b6105e4611a76565b6105ec611a49565b60006002826040516105fe9190611ea8565b9081526040519081900360200190209050600160078083015460ff169081111561062a5761062a611c3b565b148061064e5750600560078083015460ff169081111561064c5761064c611c3b565b145b61068a5760405162461bcd60e51b815260206004820152600d60248201526c10d85b9b9bdd081c99599d5b99609a1b6044820152606401610411565b6003810154600182015460048084015460405163a9059cbb60e01b81526001600160a01b0393841692810192909252602482015291169063a9059cbb906044016020604051808303816000875af11580156106e9573d6000803e3d6000fd5b505050506040513d601f19601f8201168201806040525081019061070d9190611ec4565b6107525760405162461bcd60e51b81526020600482015260166024820152751499599d5b99081d1c985b9cd9995c8819985a5b195960521b6044820152606401610411565b60078101805460ff1916600617905560405161076f908390611ea8565b60405190819003812060048301548252907f983d7f80610c725b42b5c557052c0b3eae91b7a5cf0206967fd5f3e5120b836b906020015b60405180910390a2506107b96001600055565b50565b80516020818301810180516002825292820191909301209152805481906107e290611ee6565b80601f016020809104026020016040519081016040528092919081815260200182805461080e90611ee6565b801561085b5780601f106108305761010080835404028352916020019161085b565b820191906000526020600020905b81548152906001019060200180831161083e57829003601f168201915b50505060018401546002850154600386015460048701546005880154600689015460078a015460088b01546009909b0154999a6001600160a01b039788169a968816995094909616965091949093919260ff909116918a565b6108bc611a49565b60006002836040516108ce9190611ea8565b9081526040519081900360200190209050600160078083015460ff16908111156108fa576108fa611c3b565b1461093a5760405162461bcd60e51b815260206004820152601060248201526f13dc99195c881b9bdd08199d5b99195960821b6044820152606401610411565b6001600160a01b0382166109895760405162461bcd60e51b8152602060048201526016602482015275496e76616c696420647269766572206164647265737360501b6044820152606401610411565b60018101546001600160a01b038084169116036109e85760405162461bcd60e51b815260206004820152601960248201527f437573746f6d65722063616e6e6f7420626520647269766572000000000000006044820152606401610411565b600281810180546001600160a01b0319166001600160a01b03851617905560078201805460ff19166001830217905550816001600160a01b031683604051610a309190611ea8565b604051908190038120907fa0e03bb71527def2b78ab405cb1a0371db00c44de12d7ba54e7292c4181646bc90600090a3505050565b610a6d611a49565b6001600160a01b038116610abb5760405162461bcd60e51b8152602060048201526015602482015274496e76616c696420746f6b656e206164647265737360581b6044820152606401610411565b6001600160a01b03811660009081526003602052604090205460ff1615610b245760405162461bcd60e51b815260206004820152601760248201527f546f6b656e20616c726561647920737570706f727465640000000000000000006044820152606401610411565b6001600160a01b038116600081815260036020526040808220805460ff19166001179055517f784c8f4dbf0ffedd6e72c76501c545a70f8b203b30a26ce542bf92ba87c248a49190a250565b610bc66040805161014081018252606080825260006020830181905292820183905281018290526080810182905260a0810182905260c081018290529060e0820190815260200160008152602001600081525090565b600282604051610bd69190611ea8565b908152602001604051809103902060405180610140016040529081600082018054610c0090611ee6565b80601f0160208091040260200160405190810160405280929190818152602001828054610c2c90611ee6565b8015610c795780601f10610c4e57610100808354040283529160200191610c79565b820191906000526020600020905b815481529060010190602001808311610c5c57829003601f168201915b505050918352505060018201546001600160a01b039081166020830152600283015481166040830152600383015416606082015260048201546080820152600582015460a0820152600682015460c082015260078083015460e09092019160ff1690811115610cea57610cea611c3b565b6007811115610cfb57610cfb611c3b565b81526008820154602082015260099091015460409091015292915050565b610d21611a49565b610d2b6000611aa0565b565b610d35611a49565b6001600160a01b03811660009081526003602052604090205460ff16610d935760405162461bcd60e51b8152602060048201526013602482015272151bdad95b881b9bdd081cdd5c1c1bdc9d1959606a1b6044820152606401610411565b6001600160a01b03166000908152600360205260409020805460ff19169055565b610dbc611a49565b816001600160a01b031663a9059cbb610ddd6001546001600160a01b031690565b6040516001600160e01b031960e084901b1681526001600160a01b039091166004820152602481018490526044016020604051808303816000875af1158015610e2a573d6000803e3d6000fd5b505050506040513d601f19601f82011682018060405250810190610e4e9190611ec4565b610e9a5760405162461bcd60e51b815260206004820152601960248201527f456d657267656e6379207769746864726177206661696c6564000000000000006044820152606401610411565b5050565b610ea6611a49565b6000600282604051610eb89190611ea8565b9081526040519081900360200190209050600260078083015460ff1690811115610ee457610ee4611c3b565b14610f265760405162461bcd60e51b815260206004820152601260248201527113dc99195c881b9bdd081858d8d95c1d195960721b6044820152606401610411565b60078101805460ff19166003179055604051610f43908390611ea8565b604051908190038120907fedd1ac8c792efcb0be5db044f3f1a6051a7449f13a5191fe378b0e8a32d4fd7890600090a25050565b610f7f611a76565b6001600160a01b03821660009081526003602052604090205460ff16610fdd5760405162461bcd60e51b8152602060048201526013602482015272151bdad95b881b9bdd081cdd5c1c1bdc9d1959606a1b6044820152606401610411565b60006001600160a01b0316600284604051610ff89190611ea8565b908152604051908190036020019020600101546001600160a01b0316146110585760405162461bcd60e51b81526020600482015260146024820152734f7264657220616c72656164792065786973747360601b6044820152606401610411565b600081116110a85760405162461bcd60e51b815260206004820152601d60248201527f416d6f756e74206d7573742062652067726561746572207468616e20300000006044820152606401610411565b60008351116110ec5760405162461bcd60e51b815260206004820152601060248201526f125b9d985b1a59081bdc99195c88125160821b6044820152606401610411565b6000612710600654836110ff9190611f36565b6111099190611f53565b905060006111178284611f75565b604080516101408101825287815233602082015260009181018290526001600160a01b03871660608201526080810186905260a0810185905260c0810183905291925060e08201908152602001428152602001600081525060028660405161117f9190611ea8565b9081526040519081900360200190208151819061119c9082611fd6565b506020820151600180830180546001600160a01b039384166001600160a01b03199182161790915560408501516002850180549185169183169190911790556060850151600385018054919094169116179091556080830151600483015560a0830151600583015560c0830151600683015560e0830151600780840180549293909260ff191691849081111561123457611234611c3b565b02179055506101008201516008820155610120909101516009909101556040513390611261908790611ea8565b604080519182900382208683526001600160a01b0388166020840152917fddbfecb0c2833f335b0c41842c06ad22eef44d66a3a22eeb79d0d37df958a58f910160405180910390a36040516323b872dd60e01b8152336004820152306024820152604481018490526001600160a01b038516906323b872dd906064016020604051808303816000875af11580156112fc573d6000803e3d6000fd5b505050506040513d601f19601f820116820180604052508101906113209190611ec4565b6113645760405162461bcd60e51b8152602060048201526015602482015274151bdad95b881d1c985b9cd9995c8819985a5b1959605a1b6044820152606401610411565b60016002866040516113769190611ea8565b908152602001604051809103902060070160006101000a81548160ff021916908360078111156113a8576113a8611c3b565b021790555060405133906113bd908790611ea8565b604051908190038120858252907ffee6a120df9014db831605b8137e5fcb71b8ce3d83e112622b04b02c0a9c26bd9060200160405180910390a350506114036001600055565b505050565b611410611a49565b6001600160a01b0381166114585760405162461bcd60e51b815260206004820152600f60248201526e496e76616c6964206164647265737360881b6044820152606401610411565b600580546001600160a01b038381166001600160a01b0319831681179093556040519116919082907ff84f6b525c89a18c80bbbc0c62a7eb5390956d6b8432ab067b49963a98f8c38f90600090a35050565b6114b2611a76565b6114ba611a49565b60006002826040516114cc9190611ea8565b9081526040519081900360200190209050600360078083015460ff16908111156114f8576114f8611c3b565b1461153d5760405162461bcd60e51b81526020600482015260156024820152744f72646572206e6f7420696e2070726f677265737360581b6044820152606401610411565b60028101546001600160a01b031661158c5760405162461bcd60e51b8152602060048201526012602482015271139bc8191c9a5d995c88185cdcda59db995960721b6044820152606401610411565b60038101546002820154600683015460405163a9059cbb60e01b81526001600160a01b039283166004820152602481019190915291169063a9059cbb906044016020604051808303816000875af11580156115eb573d6000803e3d6000fd5b505050506040513d601f19601f8201168201806040525081019061160f9190611ec4565b6116535760405162461bcd60e51b8152602060048201526015602482015274111c9a5d995c881c185e5b595b9d0819985a5b1959605a1b6044820152606401610411565b6003810154600580549083015460405163a9059cbb60e01b81526001600160a01b039283166004820152602481019190915291169063a9059cbb906044016020604051808303816000875af11580156116b0573d6000803e3d6000fd5b505050506040513d601f19601f820116820180604052508101906116d49190611ec4565b6117205760405162461bcd60e51b815260206004820152601c60248201527f506c6174666f726d20666565207472616e73666572206661696c6564000000006044820152606401610411565b6007810180546004919060ff19166001830217905550426009820155600681015460028201546001600160a01b03166000908152600460205260408120805490919061176d908490612096565b909155505060078054906000611782836120a9565b919050555080600401546008600082825461179d9190612096565b90915550506040516117b0908390611ea8565b60408051918290038220600684015460058501549084526020840152917ff5112afc653d2580f0ddfd9522daf63fba1a9014f9ce9fbde4d60f8dc14e0b0691016107a6565b6117fd611a76565b600060028260405161180f9190611ea8565b9081526040519081900360200190206001810154909150336001600160a01b03909116148061184857506001546001600160a01b031633145b6118855760405162461bcd60e51b815260206004820152600e60248201526d139bdd08185d5d1a1bdc9a5e995960921b6044820152606401610411565b600160078083015460ff16908111156118a0576118a0611c3b565b146118ed5760405162461bcd60e51b815260206004820152601d60248201527f43616e206f6e6c792063616e63656c2066756e646564206f72646572730000006044820152606401610411565b6003810154600182015460048084015460405163a9059cbb60e01b81526001600160a01b0393841692810192909252602482015291169063a9059cbb906044016020604051808303816000875af115801561194c573d6000803e3d6000fd5b505050506040513d601f19601f820116820180604052508101906119709190611ec4565b6119b55760405162461bcd60e51b81526020600482015260166024820152751499599d5b99081d1c985b9cd9995c8819985a5b195960521b6044820152606401610411565b6007818101805460ff191690911790556040516119d3908390611ea8565b604051908190038120907f331a78755c5eb36be5e7ef4691b43cca7a0fb904fcd1ad05e38bce660b5b5e7090600090a2506107b96001600055565b611a16611a49565b6001600160a01b038116611a4057604051631e4fbdf760e01b815260006004820152602401610411565b6107b981611aa0565b6001546001600160a01b03163314610d2b5760405163118cdaa760e01b8152336004820152602401610411565b600260005403611a9957604051633ee5aeb560e01b815260040160405180910390fd5b6002600055565b600180546001600160a01b038381166001600160a01b0319831681179093556040519116919082907f8be0079c531659141344cd1fd0a4f28419497f9722a3daafe3b4186f6b6457e090600090a35050565b600060208284031215611b0457600080fd5b5035919050565b634e487b7160e01b600052604160045260246000fd5b600082601f830112611b3257600080fd5b813567ffffffffffffffff80821115611b4d57611b4d611b0b565b604051601f8301601f19908116603f01168101908282118183101715611b7557611b75611b0b565b81604052838152866020858801011115611b8e57600080fd5b836020870160208301376000602085830101528094505050505092915050565b600060208284031215611bc057600080fd5b813567ffffffffffffffff811115611bd757600080fd5b611be384828501611b21565b949350505050565b60005b83811015611c06578181015183820152602001611bee565b50506000910152565b60008151808452611c27816020860160208601611beb565b601f01601f19169290920160200192915050565b634e487b7160e01b600052602160045260246000fd5b60088110611c6f57634e487b7160e01b600052602160045260246000fd5b9052565b6000610140808352611c878184018e611c0f565b6001600160a01b038d811660208601528c811660408601528b166060850152608084018a905260a0840189905260c084018890529150611ccc905060e0830186611c51565b610100820193909352610120015298975050505050505050565b80356001600160a01b0381168114611cfd57600080fd5b919050565b60008060408385031215611d1557600080fd5b823567ffffffffffffffff811115611d2c57600080fd5b611d3885828601611b21565b925050611d4760208401611ce6565b90509250929050565b600060208284031215611d6257600080fd5b611d6b82611ce6565b9392505050565b6020815260008251610140806020850152611d91610160850183611c0f565b91506020850151611dad60408601826001600160a01b03169052565b5060408501516001600160a01b03811660608601525060608501516001600160a01b038116608086015250608085015160a085015260a085015160c085015260c085015160e085015260e0850151610100611e0a81870183611c51565b860151610120868101919091529095015193019290925250919050565b60008060408385031215611e3a57600080fd5b611e4383611ce6565b946020939093013593505050565b600080600060608486031215611e6657600080fd5b833567ffffffffffffffff811115611e7d57600080fd5b611e8986828701611b21565b935050611e9860208501611ce6565b9150604084013590509250925092565b60008251611eba818460208701611beb565b9190910192915050565b600060208284031215611ed657600080fd5b81518015158114611d6b57600080fd5b600181811c90821680611efa57607f821691505b602082108103611f1a57634e487b7160e01b600052602260045260246000fd5b50919050565b634e487b7160e01b600052601160045260246000fd5b8082028115828204841417611f4d57611f4d611f20565b92915050565b600082611f7057634e487b7160e01b600052601260045260246000fd5b500490565b81810381811115611f4d57611f4d611f20565b601f82111561140357600081815260208120601f850160051c81016020861015611faf5750805b601f850160051c820191505b81811015611fce57828155600101611fbb565b505050505050565b815167ffffffffffffffff811115611ff057611ff0611b0b565b61200481611ffe8454611ee6565b84611f88565b602080601f83116001811461203957600084156120215750858301515b600019600386901b1c1916600185901b178555611fce565b600085815260208120601f198616915b8281101561206857888601518255948401946001909101908401612049565b50858210156120865787850151600019600388901b60f8161c191681555b5050505050600190811b01905550565b80820180821115611f4d57611f4d611f20565b6000600182016120bb576120bb611f20565b506001019056fea26469706673582212205a112671211c2f6263d301d0ef6e93a2fc5c11f0e6c386739207de40a073541164736f6c63430008140033",
  "linkReferences": {},
  "deployedLinkReferences": {}
}